{
  "_format": "hh-sol-artifact-1",
  "contractName": "DeadManSwitch",
  "sourceName": "contracts/dms.sol",
  "abi": [
    {
      "anonymous": false,
      "inputs": [
        {
          "indexed": true,
          "internalType": "address",
          "name": "benefactor",
          "type": "address"
        },
        {
          "indexed": true,
          "internalType": "address",
          "name": "beneficiary",
          "type": "address"
        },
        {
          "indexed": false,
          "internalType": "uint256",
          "name": "amount",
          "type": "uint256"
        }
      ],
      "name": "FundsAssigned",
      "type": "event"
    },
    {
      "anonymous": false,
      "inputs": [
        {
          "indexed": true,
          "internalType": "address",
          "name": "benefactor",
          "type": "address"
        },
        {
          "indexed": true,
          "internalType": "address",
          "name": "beneficiary",
          "type": "address"
        }
      ],
      "name": "FundsRemoved",
      "type": "event"
    },
    {
      "inputs": [],
      "name": "INACTIVITY_LIMIT",
      "outputs": [
        {
          "internalType": "uint256",
          "name": "",
          "type": "uint256"
        }
      ],
      "stateMutability": "view",
      "type": "function"
    },
    {
      "inputs": [
        {
          "internalType": "address",
          "name": "_beneficiary",
          "type": "address"
        },
        {
          "internalType": "string",
          "name": "_publicKey",
          "type": "string"
        },
        {
          "internalType": "uint256",
          "name": "_funds",
          "type": "uint256"
        }
      ],
      "name": "addBeneficiary",
      "outputs": [],
      "stateMutability": "nonpayable",
      "type": "function"
    },
    {
      "inputs": [
        {
          "internalType": "address",
          "name": "_beneficiary",
          "type": "address"
        },
        {
          "internalType": "uint256",
          "name": "_amount",
          "type": "uint256"
        }
      ],
      "name": "assignFundsToBeneficiary",
      "outputs": [],
      "stateMutability": "nonpayable",
      "type": "function"
    },
    {
      "inputs": [
        {
          "internalType": "address",
          "name": "",
          "type": "address"
        }
      ],
      "name": "benefactors",
      "outputs": [
        {
          "internalType": "bool",
          "name": "isActive",
          "type": "bool"
        },
        {
          "internalType": "uint256",
          "name": "lastCheckIn",
          "type": "uint256"
        }
      ],
      "stateMutability": "view",
      "type": "function"
    },
    {
      "inputs": [],
      "name": "checkIn",
      "outputs": [],
      "stateMutability": "nonpayable",
      "type": "function"
    },
    {
      "inputs": [
        {
          "internalType": "address",
          "name": "_benefactor",
          "type": "address"
        }
      ],
      "name": "getAllBeneficiaryInfo",
      "outputs": [
        {
          "components": [
            {
              "internalType": "address",
              "name": "beneficiary",
              "type": "address"
            },
            {
              "internalType": "uint256",
              "name": "allocatedFunds",
              "type": "uint256"
            },
            {
              "internalType": "string[]",
              "name": "fileIds",
              "type": "string[]"
            }
          ],
          "internalType": "struct DeadManSwitch.BeneficiaryInfo[]",
          "name": "",
          "type": "tuple[]"
        }
      ],
      "stateMutability": "view",
      "type": "function"
    },
    {
      "inputs": [
        {
          "internalType": "address",
          "name": "_benefactor",
          "type": "address"
        }
      ],
      "name": "getAssetsFromBenefactor",
      "outputs": [
        {
          "internalType": "string[]",
          "name": "",
          "type": "string[]"
        },
        {
          "internalType": "string",
          "name": "",
          "type": "string"
        },
        {
          "internalType": "uint256",
          "name": "",
          "type": "uint256"
        }
      ],
      "stateMutability": "view",
      "type": "function"
    },
    {
      "inputs": [
        {
          "internalType": "address",
          "name": "_benefactor",
          "type": "address"
        },
        {
          "internalType": "address",
          "name": "_beneficiary",
          "type": "address"
        }
      ],
      "name": "getAssignedFunds",
      "outputs": [
        {
          "internalType": "uint256",
          "name": "",
          "type": "uint256"
        }
      ],
      "stateMutability": "view",
      "type": "function"
    },
    {
      "inputs": [
        {
          "internalType": "address",
          "name": "_benefactor",
          "type": "address"
        },
        {
          "internalType": "address",
          "name": "_beneficiary",
          "type": "address"
        }
      ],
      "name": "getFileIdsForBeneficiary",
      "outputs": [
        {
          "internalType": "string[]",
          "name": "",
          "type": "string[]"
        }
      ],
      "stateMutability": "view",
      "type": "function"
    },
    {
      "inputs": [
        {
          "internalType": "address",
          "name": "_benefactor",
          "type": "address"
        },
        {
          "internalType": "address",
          "name": "_beneficiary",
          "type": "address"
        }
      ],
      "name": "getPublicKey",
      "outputs": [
        {
          "internalType": "string",
          "name": "",
          "type": "string"
        }
      ],
      "stateMutability": "view",
      "type": "function"
    },
    {
      "inputs": [
        {
          "internalType": "address",
          "name": "_benefactor",
          "type": "address"
        },
        {
          "internalType": "address",
          "name": "_beneficiary",
          "type": "address"
        }
      ],
      "name": "isBeneficiary",
      "outputs": [
        {
          "internalType": "bool",
          "name": "",
          "type": "bool"
        }
      ],
      "stateMutability": "view",
      "type": "function"
    },
    {
      "inputs": [],
      "name": "registerAsBenefactor",
      "outputs": [],
      "stateMutability": "nonpayable",
      "type": "function"
    },
    {
      "inputs": [
        {
          "internalType": "address",
          "name": "_beneficiary",
          "type": "address"
        }
      ],
      "name": "removeBeneficiary",
      "outputs": [],
      "stateMutability": "nonpayable",
      "type": "function"
    },
    {
      "inputs": [
        {
          "internalType": "address",
          "name": "_beneficiary",
          "type": "address"
        }
      ],
      "name": "removeFundsFromBeneficiary",
      "outputs": [],
      "stateMutability": "nonpayable",
      "type": "function"
    },
    {
      "inputs": [
        {
          "internalType": "address",
          "name": "_beneficiary",
          "type": "address"
        },
        {
          "internalType": "string",
          "name": "_fileId",
          "type": "string"
        }
      ],
      "name": "uploadAssetToBeneficiary",
      "outputs": [],
      "stateMutability": "nonpayable",
      "type": "function"
    }
  ],
  "bytecode": "0x608060405234801561001057600080fd5b50612b78806100206000396000f3fe608060405234801561001057600080fd5b50600436106100f55760003560e01c80635fc682e1116100975780638883ca6d116100665780638883ca6d14610271578063bb859b13146102a1578063f3836d88146102d1578063fc78e2a3146102db576100f5565b80635fc682e1146101ea57806371658bd8146102065780637252c33a1461022457806387ae6a7f14610255576100f5565b806321e77e8d116100d357806321e77e8d1461016457806323c263861461018057806359633a1c1461019c5780635edd2d42146101b8576100f5565b8063096e27d9146100fa5780631022ffa21461012a578063183ff0851461015a575b600080fd5b610114600480360381019061010f9190611c8e565b61030b565b6040516101219190611ce9565b60405180910390f35b610144600480360381019061013f9190611c8e565b6103a4565b6040516101519190611e56565b60405180910390f35b610162610548565b005b61017e60048036038101906101799190611fad565b61061e565b005b61019a60048036038101906101959190612009565b6107fb565b005b6101b660048036038101906101b19190612009565b6109b6565b005b6101d260048036038101906101cd9190612009565b610d45565b6040516101e193929190612099565b60405180910390f35b61020460048036038101906101ff919061210a565b611031565b005b61020e611311565b60405161021b9190612179565b60405180910390f35b61023e60048036038101906102399190612009565b611318565b60405161024c929190612194565b60405180910390f35b61026f600480360381019061026a91906121bd565b611349565b005b61028b60048036038101906102869190612009565b61150f565b60405161029891906123b3565b60405180910390f35b6102bb60048036038101906102b69190611c8e565b6117fb565b6040516102c891906123d5565b60405180910390f35b6102d9611958565b005b6102f560048036038101906102f09190611c8e565b611a15565b6040516103029190612179565b60405180910390f35b60008060008473ffffffffffffffffffffffffffffffffffffffff1673ffffffffffffffffffffffffffffffffffffffff16815260200190815260200160002060030160008373ffffffffffffffffffffffffffffffffffffffff1673ffffffffffffffffffffffffffffffffffffffff16815260200190815260200160002060000160009054906101000a900460ff16905092915050565b60606103b0838361030b565b6103ef576040517f08c379a00000000000000000000000000000000000000000000000000000000081526004016103e690612443565b60405180910390fd5b6000808473ffffffffffffffffffffffffffffffffffffffff1673ffffffffffffffffffffffffffffffffffffffff16815260200190815260200160002060030160008373ffffffffffffffffffffffffffffffffffffffff1673ffffffffffffffffffffffffffffffffffffffff168152602001908152602001600020600101805480602002602001604051908101604052809291908181526020016000905b8282101561053c5783829060005260206000200180546104af90612492565b80601f01602080910402602001604051908101604052809291908181526020018280546104db90612492565b80156105285780601f106104fd57610100808354040283529160200191610528565b820191906000526020600020905b81548152906001019060200180831161050b57829003601f168201915b505050505081526020019060010190610490565b50505050905092915050565b6000803373ffffffffffffffffffffffffffffffffffffffff1673ffffffffffffffffffffffffffffffffffffffff16815260200190815260200160002060000160009054906101000a900460ff166105d6576040517f08c379a00000000000000000000000000000000000000000000000000000000081526004016105cd9061250f565b60405180910390fd5b426000803373ffffffffffffffffffffffffffffffffffffffff1673ffffffffffffffffffffffffffffffffffffffff16815260200190815260200160002060010181905550565b6000803373ffffffffffffffffffffffffffffffffffffffff1673ffffffffffffffffffffffffffffffffffffffff16815260200190815260200160002060000160009054906101000a900460ff166106ac576040517f08c379a00000000000000000000000000000000000000000000000000000000081526004016106a39061250f565b60405180910390fd5b60008060003373ffffffffffffffffffffffffffffffffffffffff1673ffffffffffffffffffffffffffffffffffffffff16815260200190815260200160002090508060030160008473ffffffffffffffffffffffffffffffffffffffff1673ffffffffffffffffffffffffffffffffffffffff16815260200190815260200160002060000160009054906101000a900460ff1661077f576040517f08c379a000000000000000000000000000000000000000000000000000000000815260040161077690612443565b60405180910390fd5b8060030160008473ffffffffffffffffffffffffffffffffffffffff1673ffffffffffffffffffffffffffffffffffffffff168152602001908152602001600020600101829080600181540180825580915050600190039060005260206000200160009091909190915090816107f591906126db565b50505050565b6000803373ffffffffffffffffffffffffffffffffffffffff1673ffffffffffffffffffffffffffffffffffffffff16815260200190815260200160002060000160009054906101000a900460ff16610889576040517f08c379a00000000000000000000000000000000000000000000000000000000081526004016108809061250f565b60405180910390fd5b610893338261030b565b6108d2576040517f08c379a00000000000000000000000000000000000000000000000000000000081526004016108c990612443565b60405180910390fd5b60008060003373ffffffffffffffffffffffffffffffffffffffff1673ffffffffffffffffffffffffffffffffffffffff16815260200190815260200160002060030160008373ffffffffffffffffffffffffffffffffffffffff1673ffffffffffffffffffffffffffffffffffffffff168152602001908152602001600020600301819055508073ffffffffffffffffffffffffffffffffffffffff163373ffffffffffffffffffffffffffffffffffffffff167fed3bcff430e222467aff70c4fd15e4ab4185a14d9fd898415f33e6323e2b5b9d60405160405180910390a350565b6000803373ffffffffffffffffffffffffffffffffffffffff1673ffffffffffffffffffffffffffffffffffffffff16815260200190815260200160002060000160009054906101000a900460ff16610a44576040517f08c379a0000000000000000000000000000000000000000000000000000000008152600401610a3b9061250f565b60405180910390fd5b60008060003373ffffffffffffffffffffffffffffffffffffffff1673ffffffffffffffffffffffffffffffffffffffff16815260200190815260200160002090508060030160008373ffffffffffffffffffffffffffffffffffffffff1673ffffffffffffffffffffffffffffffffffffffff16815260200190815260200160002060000160009054906101000a900460ff16610b17576040517f08c379a0000000000000000000000000000000000000000000000000000000008152600401610b0e906127f9565b60405180910390fd5b8060030160008373ffffffffffffffffffffffffffffffffffffffff1673ffffffffffffffffffffffffffffffffffffffff168152602001908152602001600020600080820160006101000a81549060ff0219169055600182016000610b7d9190611aea565b600282016000610b8d9190611b0b565b600382016000905550506000806000905060005b8360020180549050811015610c3c578473ffffffffffffffffffffffffffffffffffffffff16846002018281548110610bdd57610bdc612819565b5b9060005260206000200160009054906101000a900473ffffffffffffffffffffffffffffffffffffffff1673ffffffffffffffffffffffffffffffffffffffff1603610c2f5780925060019150610c3c565b8080600101915050610ba1565b508015610d3f578260020160018460020180549050610c5b9190612877565b81548110610c6c57610c6b612819565b5b9060005260206000200160009054906101000a900473ffffffffffffffffffffffffffffffffffffffff16836002018381548110610cad57610cac612819565b5b9060005260206000200160006101000a81548173ffffffffffffffffffffffffffffffffffffffff021916908373ffffffffffffffffffffffffffffffffffffffff16021790555082600201805480610d0957610d086128ab565b5b6001900381819060005260206000200160006101000a81549073ffffffffffffffffffffffffffffffffffffffff021916905590555b50505050565b60608060008362093a806000808373ffffffffffffffffffffffffffffffffffffffff1673ffffffffffffffffffffffffffffffffffffffff1681526020019081526020016000206001015442610d9c9190612877565b1015610ddd576040517f08c379a0000000000000000000000000000000000000000000000000000000008152600401610dd490612926565b60405180910390fd5b60008060008773ffffffffffffffffffffffffffffffffffffffff1673ffffffffffffffffffffffffffffffffffffffff168152602001908152602001600020905060008160030160003373ffffffffffffffffffffffffffffffffffffffff1673ffffffffffffffffffffffffffffffffffffffff16815260200190815260200160002090508060000160009054906101000a900460ff16610eb5576040517f08c379a0000000000000000000000000000000000000000000000000000000008152600401610eac906129b8565b60405180910390fd5b8060010181600201826003015482805480602002602001604051908101604052809291908181526020016000905b82821015610f8f578382906000526020600020018054610f0290612492565b80601f0160208091040260200160405190810160405280929190818152602001828054610f2e90612492565b8015610f7b5780601f10610f5057610100808354040283529160200191610f7b565b820191906000526020600020905b815481529060010190602001808311610f5e57829003601f168201915b505050505081526020019060010190610ee3565b505050509250818054610fa190612492565b80601f0160208091040260200160405190810160405280929190818152602001828054610fcd90612492565b801561101a5780601f10610fef5761010080835404028352916020019161101a565b820191906000526020600020905b815481529060010190602001808311610ffd57829003601f168201915b505050505091509550955095505050509193909250565b6000803373ffffffffffffffffffffffffffffffffffffffff1673ffffffffffffffffffffffffffffffffffffffff16815260200190815260200160002060000160009054906101000a900460ff166110bf576040517f08c379a00000000000000000000000000000000000000000000000000000000081526004016110b69061250f565b60405180910390fd5b60008060003373ffffffffffffffffffffffffffffffffffffffff1673ffffffffffffffffffffffffffffffffffffffff16815260200190815260200160002090508060030160008573ffffffffffffffffffffffffffffffffffffffff1673ffffffffffffffffffffffffffffffffffffffff16815260200190815260200160002060000160009054906101000a900460ff1615611193576040517f08c379a000000000000000000000000000000000000000000000000000000000815260040161118a90612a24565b60405180910390fd5b6040518060800160405280600115158152602001600067ffffffffffffffff8111156111c2576111c1611e82565b5b6040519080825280602002602001820160405280156111f557816020015b60608152602001906001900390816111e05790505b508152602001848152602001838152508160030160008673ffffffffffffffffffffffffffffffffffffffff1673ffffffffffffffffffffffffffffffffffffffff16815260200190815260200160002060008201518160000160006101000a81548160ff0219169083151502179055506020820151816001019080519060200190611282929190611b4b565b50604082015181600201908161129891906126db565b506060820151816003015590505080600201849080600181540180825580915050600190039060005260206000200160009091909190916101000a81548173ffffffffffffffffffffffffffffffffffffffff021916908373ffffffffffffffffffffffffffffffffffffffff16021790555050505050565b62093a8081565b60006020528060005260406000206000915090508060000160009054906101000a900460ff16908060010154905082565b6000803373ffffffffffffffffffffffffffffffffffffffff1673ffffffffffffffffffffffffffffffffffffffff16815260200190815260200160002060000160009054906101000a900460ff166113d7576040517f08c379a00000000000000000000000000000000000000000000000000000000081526004016113ce9061250f565b60405180910390fd5b6113e1338361030b565b611420576040517f08c379a000000000000000000000000000000000000000000000000000000000815260040161141790612443565b60405180910390fd5b806000803373ffffffffffffffffffffffffffffffffffffffff1673ffffffffffffffffffffffffffffffffffffffff16815260200190815260200160002060030160008473ffffffffffffffffffffffffffffffffffffffff1673ffffffffffffffffffffffffffffffffffffffff168152602001908152602001600020600301819055508173ffffffffffffffffffffffffffffffffffffffff163373ffffffffffffffffffffffffffffffffffffffff167f1155d8611c2c6d8239400690b6f6d964dde6365c113ab0b01fda51ddc1c33adc836040516115039190612179565b60405180910390a35050565b60608173ffffffffffffffffffffffffffffffffffffffff163373ffffffffffffffffffffffffffffffffffffffff161461157f576040517f08c379a000000000000000000000000000000000000000000000000000000000815260040161157690612ab6565b60405180910390fd5b60008060008473ffffffffffffffffffffffffffffffffffffffff1673ffffffffffffffffffffffffffffffffffffffff168152602001908152602001600020905060008160020180549050905060008167ffffffffffffffff8111156115e9576115e8611e82565b5b60405190808252806020026020018201604052801561162257816020015b61160f611ba4565b8152602001906001900390816116075790505b50905060005b828110156117ef57600084600201828154811061164857611647612819565b5b9060005260206000200160009054906101000a900473ffffffffffffffffffffffffffffffffffffffff16905060008560030160008373ffffffffffffffffffffffffffffffffffffffff1673ffffffffffffffffffffffffffffffffffffffff168152602001908152602001600020905060405180606001604052808373ffffffffffffffffffffffffffffffffffffffff1681526020018260030154815260200182600101805480602002602001604051908101604052809291908181526020016000905b828210156117bb57838290600052602060002001805461172e90612492565b80601f016020809104026020016040519081016040528092919081815260200182805461175a90612492565b80156117a75780601f1061177c576101008083540402835291602001916117a7565b820191906000526020600020905b81548152906001019060200180831161178a57829003601f168201915b50505050508152602001906001019061170f565b505050508152508484815181106117d5576117d4612819565b5b602002602001018190525050508080600101915050611628565b50809350505050919050565b6060611807838361030b565b611846576040517f08c379a000000000000000000000000000000000000000000000000000000000815260040161183d90612443565b60405180910390fd5b6000808473ffffffffffffffffffffffffffffffffffffffff1673ffffffffffffffffffffffffffffffffffffffff16815260200190815260200160002060030160008373ffffffffffffffffffffffffffffffffffffffff1673ffffffffffffffffffffffffffffffffffffffff16815260200190815260200160002060020180546118d290612492565b80601f01602080910402602001604051908101604052809291908181526020018280546118fe90612492565b801561194b5780601f106119205761010080835404028352916020019161194b565b820191906000526020600020905b81548152906001019060200180831161192e57829003601f168201915b5050505050905092915050565b60008060003373ffffffffffffffffffffffffffffffffffffffff1673ffffffffffffffffffffffffffffffffffffffff16815260200190815260200160002090508060000160009054906101000a900460ff16156119ec576040517f08c379a00000000000000000000000000000000000000000000000000000000081526004016119e390612b22565b60405180910390fd5b60018160000160006101000a81548160ff02191690831515021790555042816001018190555050565b6000611a21838361030b565b611a60576040517f08c379a0000000000000000000000000000000000000000000000000000000008152600401611a5790612443565b60405180910390fd5b6000808473ffffffffffffffffffffffffffffffffffffffff1673ffffffffffffffffffffffffffffffffffffffff16815260200190815260200160002060030160008373ffffffffffffffffffffffffffffffffffffffff1673ffffffffffffffffffffffffffffffffffffffff16815260200190815260200160002060030154905092915050565b5080546000825590600052602060002090810190611b089190611bdb565b50565b508054611b1790612492565b6000825580601f10611b295750611b48565b601f016020900490600052602060002090810190611b479190611bff565b5b50565b828054828255906000526020600020908101928215611b93579160200282015b82811115611b92578251829081611b8291906126db565b5091602001919060010190611b6b565b5b509050611ba09190611bdb565b5090565b6040518060600160405280600073ffffffffffffffffffffffffffffffffffffffff16815260200160008152602001606081525090565b5b80821115611bfb5760008181611bf29190611b0b565b50600101611bdc565b5090565b5b80821115611c18576000816000905550600101611c00565b5090565b6000604051905090565b600080fd5b600080fd5b600073ffffffffffffffffffffffffffffffffffffffff82169050919050565b6000611c5b82611c30565b9050919050565b611c6b81611c50565b8114611c7657600080fd5b50565b600081359050611c8881611c62565b92915050565b60008060408385031215611ca557611ca4611c26565b5b6000611cb385828601611c79565b9250506020611cc485828601611c79565b9150509250929050565b60008115159050919050565b611ce381611cce565b82525050565b6000602082019050611cfe6000830184611cda565b92915050565b600081519050919050565b600082825260208201905092915050565b6000819050602082019050919050565b600081519050919050565b600082825260208201905092915050565b60005b83811015611d6a578082015181840152602081019050611d4f565b60008484015250505050565b6000601f19601f8301169050919050565b6000611d9282611d30565b611d9c8185611d3b565b9350611dac818560208601611d4c565b611db581611d76565b840191505092915050565b6000611dcc8383611d87565b905092915050565b6000602082019050919050565b6000611dec82611d04565b611df68185611d0f565b935083602082028501611e0885611d20565b8060005b85811015611e445784840389528151611e258582611dc0565b9450611e3083611dd4565b925060208a01995050600181019050611e0c565b50829750879550505050505092915050565b60006020820190508181036000830152611e708184611de1565b905092915050565b600080fd5b600080fd5b7f4e487b7100000000000000000000000000000000000000000000000000000000600052604160045260246000fd5b611eba82611d76565b810181811067ffffffffffffffff82111715611ed957611ed8611e82565b5b80604052505050565b6000611eec611c1c565b9050611ef88282611eb1565b919050565b600067ffffffffffffffff821115611f1857611f17611e82565b5b611f2182611d76565b9050602081019050919050565b82818337600083830152505050565b6000611f50611f4b84611efd565b611ee2565b905082815260208101848484011115611f6c57611f6b611e7d565b5b611f77848285611f2e565b509392505050565b600082601f830112611f9457611f93611e78565b5b8135611fa4848260208601611f3d565b91505092915050565b60008060408385031215611fc457611fc3611c26565b5b6000611fd285828601611c79565b925050602083013567ffffffffffffffff811115611ff357611ff2611c2b565b5b611fff85828601611f7f565b9150509250929050565b60006020828403121561201f5761201e611c26565b5b600061202d84828501611c79565b91505092915050565b600082825260208201905092915050565b600061205282611d30565b61205c8185612036565b935061206c818560208601611d4c565b61207581611d76565b840191505092915050565b6000819050919050565b61209381612080565b82525050565b600060608201905081810360008301526120b38186611de1565b905081810360208301526120c78185612047565b90506120d6604083018461208a565b949350505050565b6120e781612080565b81146120f257600080fd5b50565b600081359050612104816120de565b92915050565b60008060006060848603121561212357612122611c26565b5b600061213186828701611c79565b935050602084013567ffffffffffffffff81111561215257612151611c2b565b5b61215e86828701611f7f565b925050604061216f868287016120f5565b9150509250925092565b600060208201905061218e600083018461208a565b92915050565b60006040820190506121a96000830185611cda565b6121b6602083018461208a565b9392505050565b600080604083850312156121d4576121d3611c26565b5b60006121e285828601611c79565b92505060206121f3858286016120f5565b9150509250929050565b600081519050919050565b600082825260208201905092915050565b6000819050602082019050919050565b61223281611c50565b82525050565b61224181612080565b82525050565b600082825260208201905092915050565b600061226382611d04565b61226d8185612247565b93508360208202850161227f85611d20565b8060005b858110156122bb578484038952815161229c8582611dc0565b94506122a783611dd4565b925060208a01995050600181019050612283565b50829750879550505050505092915050565b60006060830160008301516122e56000860182612229565b5060208301516122f86020860182612238565b50604083015184820360408601526123108282612258565b9150508091505092915050565b600061232983836122cd565b905092915050565b6000602082019050919050565b6000612349826121fd565b6123538185612208565b93508360208202850161236585612219565b8060005b858110156123a15784840389528151612382858261231d565b945061238d83612331565b925060208a01995050600181019050612369565b50829750879550505050505092915050565b600060208201905081810360008301526123cd818461233e565b905092915050565b600060208201905081810360008301526123ef8184612047565b905092915050565b7f42656e6566696369617279206e6f7420666f756e640000000000000000000000600082015250565b600061242d601583612036565b9150612438826123f7565b602082019050919050565b6000602082019050818103600083015261245c81612420565b9050919050565b7f4e487b7100000000000000000000000000000000000000000000000000000000600052602260045260246000fd5b600060028204905060018216806124aa57607f821691505b6020821081036124bd576124bc612463565b5b50919050565b7f4e6f74206120726567697374657265642062656e65666163746f720000000000600082015250565b60006124f9601b83612036565b9150612504826124c3565b602082019050919050565b60006020820190508181036000830152612528816124ec565b9050919050565b60008190508160005260206000209050919050565b60006020601f8301049050919050565b600082821b905092915050565b6000600883026125917fffffffffffffffffffffffffffffffffffffffffffffffffffffffffffffffff82612554565b61259b8683612554565b95508019841693508086168417925050509392505050565b6000819050919050565b60006125d86125d36125ce84612080565b6125b3565b612080565b9050919050565b6000819050919050565b6125f2836125bd565b6126066125fe826125df565b848454612561565b825550505050565b600090565b61261b61260e565b6126268184846125e9565b505050565b5b8181101561264a5761263f600082612613565b60018101905061262c565b5050565b601f82111561268f576126608161252f565b61266984612544565b81016020851015612678578190505b61268c61268485612544565b83018261262b565b50505b505050565b600082821c905092915050565b60006126b260001984600802612694565b1980831691505092915050565b60006126cb83836126a1565b9150826002028217905092915050565b6126e482611d30565b67ffffffffffffffff8111156126fd576126fc611e82565b5b6127078254612492565b61271282828561264e565b600060209050601f8311600181146127455760008415612733578287015190505b61273d85826126bf565b8655506127a5565b601f1984166127538661252f565b60005b8281101561277b57848901518255600182019150602085019450602081019050612756565b868310156127985784890151612794601f8916826126a1565b8355505b6001600288020188555050505b505050505050565b7f42656e656669636961727920646f6573206e6f74206578697374000000000000600082015250565b60006127e3601a83612036565b91506127ee826127ad565b602082019050919050565b60006020820190508181036000830152612812816127d6565b9050919050565b7f4e487b7100000000000000000000000000000000000000000000000000000000600052603260045260246000fd5b7f4e487b7100000000000000000000000000000000000000000000000000000000600052601160045260246000fd5b600061288282612080565b915061288d83612080565b92508282039050818111156128a5576128a4612848565b5b92915050565b7f4e487b7100000000000000000000000000000000000000000000000000000000600052603160045260246000fd5b7f42656e65666163746f72206973207374696c6c20616374697665000000000000600082015250565b6000612910601a83612036565b915061291b826128da565b602082019050919050565b6000602082019050818103600083015261293f81612903565b9050919050565b7f596f7520617265206e6f7420612062656e6566696369617279206f662074686960008201527f732062656e65666163746f720000000000000000000000000000000000000000602082015250565b60006129a2602c83612036565b91506129ad82612946565b604082019050919050565b600060208201905081810360008301526129d181612995565b9050919050565b7f42656e656669636961727920616c726561647920616464656400000000000000600082015250565b6000612a0e601983612036565b9150612a19826129d8565b602082019050919050565b60006020820190508181036000830152612a3d81612a01565b9050919050565b7f4f6e6c79207468652062656e65666163746f722063616e20766965772074686960008201527f7320646174610000000000000000000000000000000000000000000000000000602082015250565b6000612aa0602683612036565b9150612aab82612a44565b604082019050919050565b60006020820190508181036000830152612acf81612a93565b9050919050565b7f416c726561647920726567697374657265640000000000000000000000000000600082015250565b6000612b0c601283612036565b9150612b1782612ad6565b602082019050919050565b60006020820190508181036000830152612b3b81612aff565b905091905056fea26469706673582212200b4f342d731403c4aa24fe856a4c1048c53ed60da44bebd410c69bed93b1a5a264736f6c63430008160033",
  "linkReferences": {},
  "deployedLinkReferences": {}
}